:1040000000080020254A0000214A0000214A000043
:10401000214A0000214A0000214A0000214A0000F4
:10402000214A0000214A0000214A0000214A0000E4
:10403000214A000060BE0200214A0000214A00001F
:10404000214A0000214A0000214A0000214A0000C4
:10405000214A0000214A0000214A0000214A0000B4
:10406000214A0000214A00004D790000BD470000B0
:104070004D480000214A0000214A0000214A00006A
:10408000214A0000214A0000214A0000214A000084
:10409000214A000019500000214A0000214A000076
:1040A000214A000021510000D9500000214A00009F
:1040B000214A0000214A0000214A00006D740200DC
:1040C000F9730200F5730200356B02006974020097
:1040D000FD7302001D74020001740200CD52020043
:1040E000B1740200214A0000214A0000214A000068
:1040F000214A0000214A0000214A0000214A000014
:10410000214A0000214A0000214A0000214A000003
:10411000214A0000214A0000214A0000214A0000F3
:10412000214A0000214A0000214A0000214A0000E3
:10413000214A000010B5054C237833B9044B13B164
:10414000044800E000BF0123237010BD28140020A4
:104150000000000024EB020008B5034B1BB103492B
:10416000034800E000BF08BD000000002C14002040
:1041700024EB0200154B002B08BF134B9D46A3F503
:10418000803A00218B460F461348144A121A27F032
:104190006AFD0F4B002B00D098470E4B002B00D030
:1041A00098470020002104000D000D48002802D08F
:1041B0000C4800E000BF27F0EFFC2000290000F0D1
:1041C00003F927F0D5FC00BF00000800000800201C
:1041D000000000000000000028140020D85000203B
:1041E000000000000000000000F0FCBB704700BFB2
:1041F000042201231146032002F0E4BCF0B587B08D
:1042000001A802F0EBFE534B9B6DDA0315D4524923
:10421000524A0B6823F4FF0323F4FE4343F4BC1318
:1042200043F4A0630B60136823F4704343F44043EA
:104230001360136843F4E06313609DF80530012BAD
:1042400076D0474F474DD7F8806001AC46F0030663
:104250000FCDC7F880600FC4434A2B68D2F84C11C9
:1042600024F8023B1B0C23700B0358D54FF6FF724A
:104270003E4B1B8893420CBF8523DBB28DF80D307B
:104280008DF80E304F2401A802F0C6FA384800F02D
:104290003FFC384802F070F9374D0421002001F04E
:1042A000E3FF95E8070001AB03C3110C23F8022BD1
:1042B00001A819708DF8054002F046FB4FF400404C
:1042C00000F09AFC07211B2001F0CEFF07210846D1
:1042D00001F0CAFF0721082001F0C6FF07212320B3
:1042E00001F0C2FF0721242001F0BEFF00240123BA
:1042F000296901A8ADF808108DF804308DF8054043
:104300008DF806408DF807408DF8084002F0F0FD6A
:1043100006A800F8184D02F00FFC07B0F0BDD2F867
:1043200050318DF80D30D2F850318DF80E30A9E7AC
:104330009DF80430002B84D14FF000530F4C1B68C4
:104340000F481049104A114B246800680968126828
:104350001B6876E700C0004034C0004030C0004019
:1043600000800040F0BF02000080E00F0001E00F7D
:1043700000F0490200B4C40404C002000040002060
:104380000080002000C0002000000120004001202B
:1043900010B500F0C5F9B0F5B47F08D2094C236818
:1043A0000133B3F5803F236006DA002010BD002200
:1043B000044B01201A6010BD00F0D0F8002301204A
:1043C000236010BD5C14002010B5FFF717FFFFF746
:1043D0000DFFFFF709FF254804F080F898B917F0A2
:1043E0008DFB17F0D3FB17F095FB17F0DBFB17F0F5
:1043F0009DFB17F0A7FB17F069FB17F0AFFB17F059
:1044000071FB17F0B7FB00F037FAFFF7F1FE04E09D
:1044100000F004F900F076F950B100F039F9FFF737
:10442000B7FFC8B900F0FAF800F06CF90028F4D131
:1044300002F0C8FA04F01CF803F084FF02F0C4FA9A
:10444000EBE7204600F0C0F800F05CF90028DFD16F
:10445000FFF79EFF0028DBD003F0E3FF04460028AF
:10446000D6D000F087FA0028EED1EAE718C00200A3
:104470002DE9F0410446458983F00103ED1A884691
:10448000164602F0ABFA2389ADB29D4260D91E2ECA
:10449000074636D92389ED1AC5EB0515B6EB450F4E
:1044A00056D81E2E354628BF1E252088414600EBD3
:1044B000C00004EB80002A46103027F0B0FB2388B0
:1044C00022886089511C91FBF0F200FB121203EB71
:1044D000C30304EB830392B2DD602280E388761B82
:1044E00003F101039BB2E3802389A84403F1010394
:1044F0009BB22381D5D1384602F074FA0120BDE881
:10450000F0812088414600EBC00004EB8000324679
:10451000103027F084FB238822886089511C91FB8E
:10452000F0F200FB121203EBC30304EB830392B21D
:10453000DE602280E388384601339BB2E380238922
:1045400001339BB2238102F04DFA0120BDE8F081D6
:1045500002F048FA0020BDE8F08100BF10B400244A
:10456000074B21461C8003F10C005C804FF4BD62B8
:104570009C80DC801C815DF8044B27F074BB00BF7D
:104580007C09002030B4012504210022044B054C95
:104590001D71206030BC19805A80FFF7DFBF00BF5B
:1045A0000C0800206014002038B50D46054C01466B
:1045B0002A46601D27F033FB0023ADB265802371CE
:1045C000238038BD0C080020014658B10368064816
:1045D0001A0202F4E062C3F307231A4304320023F1
:1045E000FFF746BF704700BF7C09002010B502F0FE
:1045F000F5F9094A91885389013191FBF3F404FBE1
:104600001313BDE810409BB293801389013B9BB20A
:10461000138102F0E7B900BF7C09002070B51A4D84
:10462000EB889BB2002B2ED0184E22E06C8802F053
:10463000D9F9A4B204EBC404A4002B19D96810342E
:10464000C9B2281933689847E8B902F0C7F96A88EF
:104650006B89013292FBF3F101FB13239BB26B8058
:10466000EB88013B9BB2EB8002F0BCF9EB889BB27C
:104670004BB102F0B3F9EC88A4B2002CD6D102F011
:10468000B1F92368FFDE70BD7C09002060140020B2
:1046900038B5184C23791BBB23889BB203BBD4F8D5
:1046A0000500154A20F47F4323F0070393421BD0F3
:1046B00004F1090104F036F9104A01231168104889
:1046C0000D682A0202F4E062C5F307252A4304328A
:1046D000FFF7CEFE01210422002321712280638096
:1046E000BDE83840FFF79ABF04F1090000F092F9E5
:1046F000E2E700BF0C0800202000FF002C1B002078
:104700007C090020054B1A792AB9188880B2B0FAC2
:1047100080F0400970470020704700BF0C0800205F
:10472000044B1A895889801A0138C0EB00104000E8
:10473000704700BF7C090020704700BF10B4044CD4
:104740000A46044B014620685DF8044B01F092BB19
:10475000700F00205947000019461046FFF746BF6A
:1047600038B5022003F0ACFE4FF4004542F2480198
:104770000D4C206803685A6E22F4E0225A665A6E85
:1047800042F480225A665D50022100F0E1FF074B9F
:104790004FF4B4722068064901F01AFB054A064B33
:1047A00012681A6038BD00BF700F00203947000042
:1047B00068140020D4150020D01500201F4B186865
:1047C00003689A6C120437D542F248024FF4004154
:1047D00030B51B4C9950236885B033B9042003F0E1
:1047E0006FFEFFF7BDFF05B030BD0021256804ABAB
:1047F00043F8041DCDE90111013D02AA01A925607C
:1048000001F048F801980028EDD002990329EAD96F
:104810000C4B0D4C1A68130203F4E063C2F3072239
:1048200013430433236023689942DCD32168FFF7E4
:10483000BBFEFFF795FFD6E7704700BF700F002063
:10484000D0150020681400206414002010B5094C15
:1048500023681B689B6C9B0400D410BD022003F0EE
:104860002FFE42F248034FF4005122681268D150E3
:1048700010BD00BF700F0020F0B5032140F20566A7
:104880000023042201204FF480544FF4E137022525
:104890008BB0ADF80E608DF81810284E28498DF8B1
:1048A0000C308DF80D308DF81030ADF814308DF8D7
:1048B00016308DF817308DF819308DF81A20214BED
:1048C000214A8DF81C000191306801A9CDE9082327
:1048D000ADF812408DF81B50029701F077F8029B5B
:1048E0001A4D9B091A482B60FFF74CFE19490B2003
:1048F00002F0C8F818490C2002F0C4F84FF4006226
:1049000042F24801154B3068C3F88021C3F880415A
:104910001A601C60124A0368124C5C665A50DA6CCA
:10492000114942F42042DA64104B4FF4B47201F0A2
:104930004FFA2A680E4B1A600BB0F0BD700F0020C2
:1049400000800540F40F0020740F0020D4150020D3
:104950003D470000BD4700004D48000000E100E079
:10496000FFFF0100300024016814002039470000D7
:10497000D015002003681A4A23F47F4323F007036D
:1049800093420ED110B54368044613F0010012D1D2
:104990005A0716D413F0020F18BF01201B0702D4C8
:1049A00010BD00207047002240F60920114617F084
:1049B00017F8012010BD17F00BF8636801205A07A3
:1049C000E8D5002240F29510114617F009F8636807
:1049D000012013F0020F18BF01201B07E0D5E2E70A
:1049E000A000010330B50A4D87B001AC0FCD0FC454
:1049F0002B6801A94FF0FF3023601CF0E5FD20B9C2
:104A000001214FF0FF301CF0E2FD07B030BD00BFC8
:104A100064C00200002240F28310114617F03CB837
:104A2000FEE700BF08B500F019F8094B094A9342A8
:104A30000CD2181D0332121A22F003020649024456
:104A400051F8040B43F8040B9342F9D1FFF792FBA2
:104A5000000800202814002030EB0200044B054A17
:104A60009A60D3F8882042F47002C3F88820704717
:104A700000ED00E000400000094B1B6F03F007034E
:104A8000022B09D0032B04D0012B00D0FEE70548F0
:104A90007047054B18687047044B1868704700BF93
:104AA00000800040002D31017C1000207810002093
:104AB0000D4B1B6F03F00703022B12D0032B0DD0FD
:104AC000012B00D0FEE7094B0749094A086FC0F3E4
:104AD00001300130B3FBF0F010607047054B1B68EC
:104AE000F2E7054B1B68EFE700800040002D310125
:104AF000741000207C1000207810002000487047BF
:104B000000B4C404014B1868704700BF7C1000203B
:104B1000054A064B10601B6F03F00703032B00D000
:104B20007047FFF7C5BF00BF7C1000200080004029
:104B3000014B1868704700BF78100020014B1860C7
:104B4000704700BF78100020002070470048704771
:104B5000002D3101174B9868C0F304400C2823D86E
:104B6000DFE800F0092222222222181A1C221E202D
:104B70000700114870470F4B9B6803F04073B3F177
:104B8000807F13D0B3F1007F12D00C4A002B08BFF6
:104B9000104670470A4870470A4870470A487047ED
:104BA0000A4870470A487047002070470948704714
:104BB000094870470040014A005A620200093D005E
:104BC000405DC6000024F400C0EA210180BA8C01D7
:104BD0000048E80180841E0040420F004FF400406E
:104BE000704700BF4FF47A70704700BF014B1868E0
:104BF000704700BF80100020014B1860704700BF55
:104C0000801000202DE9F04F594C0646207885B0E1
:104C100014469DF84C909DF84420002865D0072C40
:104C20005FD80F460E9900295BD00F99002958D004
:104C30001299B1F5006F54DC012E4FD0DFF844819A
:104C40004FEA041E08EB0E01097B002951D0002019
:104C5000484D6101CDE90100039005EB010C002FE7
:104C600049D16F509CF802A09CF803004AF0100A4A
:104C700040F03000CCE90177CCF80C708CF802A041
:104C80008CF80300002A66D0129A685A013A62F33F
:104C90000E10685200930D440E9BEA78AB600F9B98
:104CA00069F38302012E6B60EA703ED0149B002BE7
:104CB00057D00025149B204648F80E30159BC6445B
:104CC00062466946CEF804308EF80D60CEF8085082
:104CD00002F008F8284605B0BDE8F08F10990029C9
:104CE000ACD1254805B0BDE8F08F244805B0BDE83B
:104CF000F08F2348F6E768509CF802B09CF803A0B8
:104D00004BF0100B4AF0030ACCE90100CCF80C0080
:104D10008CF802B08CF803A0002AB5D15FFA8AF2B1
:104D200042F030028CF80320AEE713226FF0030A42
:104D3000EA6005F1100995E80F0089E80F00EA69BB
:104D4000109B6AF39F02012FEA616B61B1D1109B46
:104D5000A9616B60ADE7C2B242F003028CF8032098
:104D600092E7AB78149A62F30413AB70A1E700BF2B
:104D70005817002058160020018000F0028000F033
:104D8000078000F0D8150020114B1B788BB190B133
:104D900070B5054601F022FE0E4900230A46147B39
:104DA000103254B10133082BF9D101F01BFE0A482F
:104DB00070BD0A4870470A48704701262B601B01E6
:104DC000CA18CC50167301F00DFE204670BD00BF0E
:104DD00058170020D8150020048000F0028000F051
:104DE000018000F0002310B5164A82B012680192CB
:104DF0008DF8043001F0F2FD134B1C78E4B9012268
:104E00001A7001F0EFFD0422104B0DEB02001C7331
:104E10001C7783F82C4083F83C4083F84C4083F89F
:104E20005C4083F86C4083F87C408DF8072001F0EB
:104E300027FF204602B010BD01F0D4FD044802B0A7
:104E400010BD00BF78C0020058170020D815002000
:104E5000038000F0F0B5002489B00F9D9DF83870F4
:104E6000019300929DF840600B4602460294214651
:104E7000CDE903752046119D129C0596CDE9065497
:104E8000FFF7C0FE09B0F0BDF0B5002489B09DF871
:104E9000387001930F9E00929DF840500B460246D9
:104EA000129902942046119C079103970496CDE92C
:104EB00005540121FFF7A6FE09B0F0BD0A4A127899
:104EC00072B1072808B509D8084A02EB00131B7B0A
:104ED00043B1002101F0C2FE002008BD044808BD16
:104EE00004487047044808BD58170020D815002012
:104EF000018000F0028000F0078000F00A4A12787A
:104F000072B1072808B509D8084A02EB00131B7BC9
:104F100043B1012101F0A2FE002008BD044808BDF4
:104F200004487047044808BD58170020D8150020D1
:104F3000018000F0028000F0078000F00A4A127839
:104F40006AB1072808B508D8084A02EB00131B7B92
:104F50003BB101F017FF002008BD054808BD05481A
:104F60007047054808BD00BF58170020D81500201D
:104F7000018000F0028000F0078000F00D4B1B78EC
:104F8000A3B1072810D879B10B4B03EB00131B7B9F
:104F900073B10122094B02FA00F0DB6A18401ABF14
:104FA00000200A7008707047054870470548704730
:104FB0000548704758170020D8150020000004400D
:104FC000018000F0028000F0078000F00D4B1A789D
:104FD00092B107280DD861B10B4A02EB00131B7B7D
:104FE0006BB110B50C4601F0DFFE002320601846BF
:104FF00010BD064B18467047054B18467047054BC9
:105000001846704758170020D8150020018000F07E
:10501000028000F0078000F02DE9F8431C4B1F6D63
:105020005B6D1F4033D4012600251A4CDFF86890D1
:10503000DFF8688006E00135082D4FEA460604F1E6
:10504000100422D03742F6D02368C9F80060002B44
:10505000F1D0D4E901210131A16028469847637B52
:10506000012BE8D10028E6D108EB4513197B1A7F04
:10507000013560F3410160F34102082D19731A777D
:105080004FEA460604F11004DCD1BDE8F883FEE7E0
:1050900000000440D815002050200440581600207D
:1050A0004FF000714FF08062034BC3F8801119601C
:1050B000C3F880211A60704700E100E038B504466B
:1050C0000D4601F08BFC034B43F82450BDE83840FB
:1050D00001F088BC5C17002045F2555142F2204295
:1050E0000D4B70B5D3F82444D3F8200404400C4091
:1050F0009C507CB10126094D94FAA4F0B0FA80F0DE
:1051000055F8203006FA00F224EA020403B1984769
:10511000002CF1D170BD00BF00C003405C1700201F
:105120004AF6AA2142F220420D4B70B5D3F824442E
:10513000D3F8200404400C409C507CB10126094D5A
:1051400094FAA4F0B0FA80F055F8203006FA00F294
:1051500024EA020403B19847002CF1D170BD00BFCE
:1051600000C003405C170020704700BF32B1043913
:1051700050F8043B013A41F8043FF9D10020704750
:1051800070B59400224605460E4626F059FE431C93
:105190000DD050B922463146284626F031FD054B48
:1051A00000280CBF0020184670BD034870BD03489E
:1051B00070BD00BF10E000F024E000F021E000F03E
:1051C0002DE9F04882B0044601A801F007FF4FF432
:1051D00080730D4A63809368956CD26C4FF0000B1E
:1051E00094460122674658460A339DF8061003F09C
:1051F0001F034BEA050602FA03F321806360C4E94A
:10520000026702B0BDE8F0880080E00F01F0F6BD53
:1052100008B501F0E7FD002008BD00BF10B5044649
:1052200026F016FE431C1BD0C0B901200E4B9B6814
:105230000A3303F01F03984083080DD0226801321F
:1052400010D1221F204602EB830303E050F8042F05
:10525000013207D19842F9D1002010BD034810BD9A
:10526000034810BD034810BD0080E00F24E000F0AB
:1052700021E000F00EE000F008B501F0A7FB014BC3
:10528000186008BD984A0020014B186801F0A2BBC5
:10529000984A002008B5034B1B6803B198470120CA
:1052A00008BD00BFC01A002070B500250A4B0B4A8C
:1052B0001D800B4C0B4B1060C4E9003101F0B6FDB2
:1052C000430700D470BD01F0A9FD6368002BF9D03D
:1052D000BDE8704004201847BC1A0020C01A002006
:1052E000C41A0020955200002DE9F84301F06EFB2E
:1052F0002A4E0746347814B901F01AFC3478284D48
:105300004FF00009DFF89C802B68CCB9727822BB83
:1053100013B10320984738B1002001F0F5FB0324B6
:105320006B680BB120469847AB6803B3204698479B
:1053300010F0010F81461DD034782B68002CE5D089
:1053400013B10120984730B3D8F8103023F004038C
:10535000C8F8103030BF0124E2E71BB102209847A3
:105360000028E1D0002001F0BBFB0224D8E719F0AF
:10537000010FE1D1A31E012B05D9384601F02AFB0C
:105380002046BDE8F88301F0D5FB384601F022FB4A
:105390002046BDE8F8830446C6E700BFBC1A0020DB
:1053A000C41A002000ED00E00238C3B2012B03D87C
:1053B000024A135C01331354704700BFBC1A00202B
:1053C0000238C3B2012B00D97047034A135C002B8B
:1053D000FAD0013B13547047BC1A0020054B1A78D1
:1053E0002AB95B78002B0CBF0320022070470120F4
:1053F000704700BFBC1A002038B504460D4601F0C6
:10540000EDFAA3889BB253B1638803EB830304EBEB
:10541000830408342C6001F0E5FA002038BD2B60CD
:1054200001F0E0FA004838BD0B7000F070B504469A
:105430000D4601F0D3FAA3889BB2BBB163886288A2
:10544000E688511C91FBF6F206FB121203EB830374
:1054500004EB830392B208332B606280A388013B84
:105460009BB2A38001F0BEFA002070BD2B6001F05A
:10547000B9FA014870BD00BF0B7000F0437F064AC7
:1054800003EB43031B011A4490F821301068D84005
:1054900000F00100704700BF14C0034010B51D4B61
:1054A00082B003F1100153F8044B94F8212082429A
:1054B00003D08B42F7D102B010BD94F83130022BEB
:1054C000F9D12046FFF7DAFF637E2076022BF2D176
:1054D00094F82E3003F0FF02002BECD102A901F862
:1054E000012DA068FFF74AFD237E63B194F82F30A9
:1054F0004BB90028DFD19DF80730002BDBD0A06826
:10550000FFF7DCFCD7E70023A06884F82F30FFF713
:10551000F5FCD0E7D01A002030B5D1E900210024F5
:10552000012587B00368049001914169C068029425
:10553000034C243300950394FFF7A6FC07B030BD5D
:10554000E15C000030B5D1E900310024012587B0CD
:10555000026804900191016980680294034C3C3216
:1055600000950394FFF776FC07B030BD715500003D
:10557000F0B583B0906A01A91446FFF73DFF1A4BBE
:1055800098421BD00025019B1D619D6001F026FA09
:10559000019A0746D66826B1D2E90023294620465B
:1055A000B04701A9A06AFFF741FFA06A83889BB2B8
:1055B0003BB984F82D30384601F014FA012003B0CD
:1055C000F0BD01A9FFF718FF012294F8323084F8EA
:1055D0002D2001991BB1002384F82D30EBE72046E4
:1055E000FFF7B0FFE7E700BF0B7000F02DE9F041D7
:1055F000044615200F46164601F0F6F90546A26A44
:1056000004E094F82E302BB9002D44D193889BB23E
:10561000002BF6D1206894F83220856915F0020538
:1056200031D10423436183699907FCD541F2AC5E13
:105630004FF010084FF0010C23795B0103F180411A
:1056400001F5703141F80E8084F830C072B93EB176
:105650003E4417F8011B01F0DBFDB7422068F8D18A
:1056600083699B06FCD55DB923795B0142F2AC519D
:105670001024082203F1804303F570335C5042612B
:105680000020BDE8F081012384F83030002ADED00C
:105690000020BDE8F081FFF7BFFCB0E710B590F83F
:1056A0002E300446012B07D094F82E300020013B09
:1056B000DBB284F82E3010BD90F83130022B03D0CD
:1056C000A068FFF71BFCEFE7FFF7D8FE0028F7D034
:1056D000EAE700BFF8B5044617460D4601F07EF92B
:1056E000A388E2889A422BD9268884460FCD06EB00
:1056F0008606B600083604EB060EA051CEF804105C
:10570000CEF80820CEF80C302868CEF81000238898
:105710002288E088511C91FBF0F200FB121203EB8F
:10572000830304EB830392B208333B602280A38897
:10573000604601339BB2A38001F054F90020F8BD0C
:1057400000233B6001F04EF90048F8BD0A7000F0FC
:10575000002849D02DE9F0410D4682B0044601F001
:105760003DF9012D074623D0022D3FD1636A9B8866
:105770009BB2002B46D0E068FFF7E0FB0023606A95
:1057800084F82C3083889BB2002B60D194F83130A0
:10579000032B22D042F2AC50042502212379226847
:1057A0005B0103F1804303F570331D50516114E038
:1057B000A36A9B889BB22BB3A068FFF7BFFB0023B3
:1057C000A06A84F82D3083889BB20BBB2268936952
:1057D0009B04FCD5023D012DCDD9384601F002F9DC
:1057E000002002B0BDE8F08127487047032DF1D1B9
:1057F000A36A9B889BB2002BDED1636A9B889BB215
:10580000002BD9D101F0EEF8204802B0BDE8F081BC
:1058100001A9FFF7F1FD0199A0680831FFF7D6FB58
:105820001B4B019A9846136105E001A9FFF7FEFDA5
:10583000019BDE682EB9A06A83889BB2002BF4D14D
:10584000C4E79B68002241462046B047F3E769461B
:10585000FFF7D2FD0099E0680831FFF7B7FB0C4E67
:10586000009B1E61606A83889BB2002B8ED06946C4
:10587000FFF7DCFD009BDD68002DF3D09B68002264
:1058800031462046A847EDE7027000F0087000F0AE
:10589000097000F02DE9F04100250446406A0E46EB
:1058A000818882B089B217469846CDE9005549B93A
:1058B00000212368C8F8001039609869316002B08F
:1058C000BDE8F0816946FFF797FD01A90546E0684C
:1058D000FFF77CFB009B002BEAD0002DE8D1D3E939
:1058E000000201992368521A3A60C8F8001030602B
:1058F000986902B0BDE8F08198B110B590F82E30EB
:10590000044633B990F83130022B0CD0A068FFF771
:10591000D5FA94F82E3000200133DBB284F82E3013
:1059200010BD03487047FFF7A9FD0028EED0F0E74F
:10593000027000F070B590F8315082B0022D04462C
:105940001AD0012D02D0002002B070BD037E002BC2
:1059500037D0132302AE06F8013DFFF7CDFF2A46EC
:1059600031462046FFF742FE94F82E30002BEAD055
:105970002046FFF793FEE6E7012190F82220407EC3
:105980009140A27F80B101281DD0237EDBB942F275
:10599000100002EB42031B0103F1804303F5703357
:1059A0001950002002B070BD42F21003002002EB3B
:1059B0004202120102F1804202F57032D15002B06F
:1059C00070BD1123C6E741F21000E2E72DE9F04374
:1059D00006468BB0B44D03AC0F460FCD0FC495E80F
:1059E000070084E80700B6B1002F37D03822002125
:1059F000304626F038F9AD4A3D46137834467BB13F
:105A0000AB490023084650F8042B82B194420ED0D3
:105A10000133042BF7D1A74C20460BB0BDE8F0832F
:105A20000120A3491070C1E90033C1E9023300220B
:105A3000286841F823402B7D84F8322084F83130E7
:105A400020609D4B2A7B984222710CD09B4B984240
:105A500000F0BE809A4B984200F09680994C204608
:105A60000BB0BDE8F08320234FF4802284F823306C
:105A7000954BC4E90432D5E9072300264FF0050908
:105A8000D5F80480B5F80EE0B5F810C0AF7C6262BE
:105A9000168056809680EA7C03A984F82C60A36265
:105AA0001E805E809E8084F82D6084F82F60CDF883
:105AB0001480ADF81CE0ADF81AC08DF818708DF8A0
:105AC0001E208DF80C608DF8199001F007FB142151
:105AD0002A7B7E4B287A03EB4217C7F8AC15A97ACC
:105AE0002E3240EA014103EB421359606A7AEB7AA5
:105AF00095F815C042EA0343C7F8BC35A97A95F872
:105B000016E0EB7D95F80B802F7E2277E17784F805
:105B100021E0E07684F81DC0A3770422012384F8F5
:105B2000208084F8227001F04DF80123022294F8BD
:105B30002010207F01F046F894F83130022B5CD021
:105B4000032B72D000F04AFF2E7D0746032E7BD038
:105B5000022E22D042F248034FF0FF322868C25092
:105B6000042101F07BFA4FF440622B685A61FFF781
:105B700039F9002104F10800FFF706F988B3384627
:105B800000F030FF524C47E722234FF4C02284F844
:105B90002330504BC4E904326DE74F4994F821009B
:105BA000FFF78CFAFFF77CFA00236676A37623765C
:105BB0002046FFF7BFFE42F248024FF0FF312B7D37
:105BC0002868032B8150CBD1052101F047FACAE7A1
:105BD00021234FF4A02284F82330404BC4E904323F
:105BE00049E7014604F10C00FFF7CEF804463846B9
:105BF000002C54D100F0F6FE0EE7334694F8211045
:105C0000607F012200F0DEFF334694F82210A07F6F
:105C1000042200F0D7FF012394F82120607F114671
:105C2000CDE9003300F08AFF8CE7334694F8211069
:105C3000607F012200F0C6FF3346042294F8221050
:105C4000A07F00F0BFFF7DE741F2AC504FF00209AA
:105C500041F25C024FF0040841F2B85E41F2B45CDC
:105C600042F248014FF0FF362B7B5B0103F180438A
:105C700003F5703343F80090286840F8028095F8E7
:105C80001880EA7D42EA084243F80E2095F816E0B3
:105C90006A7D42EA0E4243F80C20465094E700F039
:105CA000A1FE0B4CB8E600BFA0C00200E01A002025
:105CB000D01A0020027000F00080054000C00540AE
:105CC00000000640037000F00200040000C0034022
:105CD0000E7000F0020006009D5400000200050056
:105CE00070B582B0506A01A91446FFF785FB354BA9
:105CF00098422CD094F83220019B5AB300221A61AA
:105D00009A6000F06BFE01990646CD6835B1D1E985
:105D100000208B680969C31A2046A84701A9606A58
:105D2000FFF784FB606A8588ADB26DB301A9FFF708
:105D300063FB012294F8323084F82C200199002B67
:105D40003BD0002384F82C30304600F04BFE01207D
:105D500002B070BD2068816C11F4007108D042F26D
:105D600048014FF400759A60174A1A614550C8E718
:105D7000826CD205C2D542F248024FF48075996018
:105D8000124919618550BCE7012320462376FFF7AD
:105D9000D1FD94F8313084F82C50032BD4D042F24A
:105DA000AC5004250221237922685B0103F1804372
:105DB00003F570331D505161C6E72046FFF7ACFB79
:105DC000C2E700BF0B7000F00D7000F00C7000F027
:105DD00070B586B000283FD0002939D0541EB4F5E4
:105DE000006F35D21446204E019105466A4601A93E
:105DF000406A02940394CDE90436FFF76BFC044635
:105E000038BB95F82C3023BB01232A685361936972
:105E1000DB07FCD541F2AC51042001222B795B0158
:105E200003F1804303F57033585095F8323085F80C
:105E30002C200099A3B1002385F82C3095F831303F
:105E4000032B06D0002328462B76FFF773FD00E0D6
:105E5000064C204606B070BD054C204606B070BD0D
:105E60002846FFF759FBE9E7017000F0037000F0E6
:105E7000027000F070B586B088B361B3541EB4F5FB
:105E8000006F28D214461A4E019105466A4601A9B0
:105E9000806A02940394CDE90436FFF71BFC0446A4
:105EA000D0B995F82D30BBB900F098FDAB6A064625
:105EB0009B889BB25BB1012295F8323085F82D208A
:105EC000009983B185F82D40012385F830303046A4
:105ED00000F088FD00E0074C204606B070BD064C7F
:105EE000204606B070BD2846FFF72CFBECE700BF4C
:105EF000017000F0037000F0027000F008B5242873
:105F00006ED8DFE800F0B81B1F2A343F56626F7A64
:105F10008DA113B01B626D6D6F1B2A342A3F1B626B
:105F20002AB0565656562A2A2A7A8D00634BD3F841
:105F3000803003F00303022B40F0A980BDE8084045
:105F4000FEF7B6BDFEF798FD5C4BD3F89030C3F377
:105F500004630133B0FBF3F008BDFEF7A9FD574B16
:105F60001B6FC3F380230133B0FBF3F008BDFEF7D2
:105F70009FFD524B1B6FC3F380230133B0FBF3F043
:105F8000400808BD4D4AD2F8803103F00303022BCC
:105F90007FD0032B00F08180012B21D1D2F820315A
:105FA00003F00703013B032B1AD8DFE803F07E5808
:105FB0007276424BD3F8203103F00703013B032BE9
:105FC0000ED8DFE803F0724C666A3C4BD3F84031E0
:105FD00003F00303022B0CD0032B54D0012B4ED023
:105FE000002008BD354BD3F8603103F00303022BCA
:105FF000F2D1BDE80840FEF7F9BD304BD3F80032CE
:1060000003F00703013B032BEAD801A252F823F067
:106010007F600000F35F000087600000A360000065
:10602000264BD3F8083203F00703013B032BD7D8E4
:1060300001A252F823F000BF7F600000F35F000070
:1060400087600000A36000001C4BD3F8003103F010
:106050000303022BCDD0032B2BD0012BC0D1BDE8E5
:106060000840FEF74FBD154BD3F8403203F0030351
:10607000022BB1D1BDE7BDE80840FEF7FDBCBDE88D
:106080000840FEF7ABBDBDE80840FEF7ABBD032BF3
:10609000A6D1BDE80840FEF75DBDBDE80840FEF7AB
:1060A00055BDFEF705FD800A08BDBDE80840FEF7B6
:1060B0003FBDBDE80840FEF747BD00BF008000407F
:1060C00008B5242820D8DFE800F0211F1F1F1F2C4F
:1060D000435B664F886E7B131F5B1F1F661F1F1F6E
:1060E0001F2C1F5B1F13434343431F1F1F4F880079
:1060F0005C4BD3F8403203F00303022B47D0032B51
:106100007ED0012B00F08080002008BD554B1B6F16
:1061100003F00703013B032BF6D8DFE803F07B878E
:106120007F8B504AD2F8803103F00303022B50D00A
:10613000032B6DD0012BE7D1D2F8203103F00703F8
:10614000013B032B00F28C80DFE803F0827E7A763D
:10615000444BD3F8203103F00703013B032BD3D882
:10616000DFE803F0625A37563E4BD3F8003203F0B3
:106170000703013B032BC7D8DFE803F0460942526F
:10618000384BD3F8403103F00303022BB7D1FEF7AD
:106190002DFD072008BD334BD3F8603103F0030316
:1061A000022BACD1F3E72F4BD3F8003103F00303FC
:1061B000022BECD0032B3BD0012B2DD0012008BDAE
:1061C000284BD3F8803003F00303022B44D0032B79
:1061D0009AD1FEF7BFFC052008BD224BD3F8083248
:1061E00003F00703013B032B8ED801A252F823F0E2
:1061F000096200008F61000001620000216200005E
:10620000FEF7F0FC092008BDFEF7E8FC082008BDF9
:10621000FEF79CFC022008BDFEF774FC032008BDBD
:10622000FEF746FC0C2008BDFEF782FC042008BDEA
:10623000FEF78AFC062008BDFEF788FC0D2008BD8D
:10624000FEF788FC0D2008BDFEF75CFC0D2008BDA4
:10625000FEF76EFC0D2008BDFEF72AFC0B2008BDE2
:106260000D2008BD00800040F8B5242800F293807E
:10627000DFE810F0A4009100910091009100B600B9
:10628000C800DA00EC00FE00100122013401920087
:106290009100DA0091009100EC00910091009100D2
:1062A0009100B6009100DA0091009200C800C80089
:1062B000C800C800910091009100FE001001002567
:1062C00002260C46FEF71AFC41F671319C4A9D4F9E
:1062D000D369D1639168B84203F4803321F440114B
:1062E00040F2258141F48011974F9160D7F8182230
:1062F000964922F00202884288BF42F00202924987
:10630000C1F8182213B100228D4BDA63904A136F43
:1063100043F480631367136F23F00703334313675A
:10632000FEF7C6FB41F67132854B864ED969DA63BA
:106330009A68B04201F4803122F4401240F2F080B9
:1063400042F48012804E9A60D6F818327F4A23F0C9
:106350000203904288BF43F002037B4AC2F818321E
:1063600011B10022764BDA63FEF7A2FB774B784A35
:1063700098428CBF4FF480600020136F23F4806339
:10638000184310673DB9032C05D142F228030121BF
:1063900002F58042D150F8BD0739C9B202298CBF3D
:1063A00000216C4B6A4A98BF53F82110D2F8403252
:1063B00023F003030B43C2F84032F8BD8B1E042BBD
:1063C00000F2AB8001A252F823F000BF0F6500007D
:1063D000FB640000BF6200001B6500001565000043
:1063E0000239C9B20B298CBF00215B4B584A98BFB8
:1063F00053F82110D2F8803123F003030B43C2F885
:106400008031F8BD0239C9B203298CBF0021534B3A
:106410004F4A98BF53F82110D2F8203123F00703D8
:106420000B43C2F82031F8BD0739C9B202298CBF2D
:1064300000214B4B464A98BF53F82110D2F8403107
:1064400023F003030B43C2F84031F8BD0739C9B24A
:1064500002298CBF0021434B3D4A98BF53F82110BD
:10646000D2F8603123F003030B43C2F86031F8BD6A
:106470000739C9B205298CBF00213B4B344A98BF6C
:1064800053F82110D2F8003223F007030B43C2F86F
:106490000032F8BD0739C9B205298CBF0021334B42
:1064A0002B4A98BF53F82110D2F8083223F0070383
:1064B0000B43C2F80832F8BD0339C9B204298CBFB6
:1064C00000212B4B224A98BF53F82110D2F80031FB
:1064D00023F003030B43C2F80031F8BD05292DD08A
:1064E0000B290CBF02210021194AD2F8803023F079
:1064F00003030B43C2F88030F8BD41F228020120AB
:106500001C4B03269D6A9850C5F34005D9E600252B
:106510000126D6E600250426D3E600252E46D0E641
:1065200009489A60D0F8183223F0020315E70648AC
:106530009160D0F8182222F00202E0E60321D3E7AE
:1065400000000340C017530200C0074080F0FA0269
:1065500000800040FCC00200BCC00200ECC0020091
:10656000FCC00200FCC0020008C1020008C1020019
:1065700020C1020000C00040934B70B59842054610
:1065800000F016812CD9914B984200F0168113D956
:106590008F4B984200F0BE8003F5740303F510534F
:1065A000984200F0FF808B4B98422BD18A4BD3F856
:1065B000904024F0407426E0884B984200F0B08070
:1065C000874B984200F0D280A3F53703A3F5D85348
:1065D000984217D1804BD3F8804024F0407412E0E9
:1065E000804B984200F0D48040F2CB807E4B9842A2
:1065F00000F09C807D4B984200F0CF807C4B98420D
:1066000000F0BA80002442F204017A4B5858012865
:1066100000F09180784B1B6F03F00703022B28D109
:10662000FEF76CFA41F67132744B754ED969DA6334
:106630009A68B04201F4803122F4401240F28F8017
:1066400042F480126F4E9A60D6F818326E4A23F0E8
:106650000203904288BF43F002036A4AC2F818322C
:1066600011B10022654BDA63634A136F43F4806310
:106670001367664B9D4264D0654B9D4201D144F047
:106680008074644AD36813F0060FFBD1916894605C
:10669000936804F4F81403F4F8139C4254D0916006
:1066A000554B1B6F03F00703022B00D070BDFEF7A4
:1066B000FFF941F67132514B514CD969DA639A684E
:1066C000A04201F4803122F4401241D942F48012F8
:1066D0004C4C9A60D4F818324B4A23F00203904293
:1066E00088BF43F00203474AC2F8183211B10022B2
:1066F000424BDA630120FFF701FC434B3E4A9842CC
:106700008CBF4FF480600020136F23F48063184324
:10671000106770BD304BD3F8944024F0407472E79A
:106720002D4BD3F8844024F040746CE72A4B1C6F47
:1067300024F0407467E71A46585093699B07FCD1D0
:1067400068E744F000749CE72846FEF7F7F9A7E7EE
:106750002C489A60D0F8183223F00203C3E7294886
:106760009A60D0F8183223F0020376E71A4BD3F878
:10677000884024F0407446E7174B5C6E24F0407468
:1067800041E7224B984203D0214B98427FF43AAF25
:10679000114B9C6D24F0407435E70F4B5C6F24F077
:1067A000407430E70C4BD3F8984024F040742AE74B
:1067B000094B9C6F24F0407425E7074BD3F88C40BD
:1067C00024F040741FE700BFC0EA2101006CDC0226
:1067D0000090D003007E56030080E00F0048E801DF
:1067E00080D5430200093D00405DC6000024F4004E
:1067F000C0CF6A0000C0014000800040000003409C
:10680000C017530200C0074080F0FA0240420F0058
:1068100080841E0000000140474B1B6F03F00703FC
:10682000032B57D0454BF0B442F2280145F60E0732
:1068300041F22805022601241A46C3F880705E51F1
:106840005C50936DD903FCD44378017884791B059F
:1068500043EA0163C1782343047943EA0143417960
:1068600043EA043343EA8113017AC4791361C57A98
:106870000B0643EA8463447A817A2B4343EA044358
:1068800043EA01239361136A867BC57B077B90F8FB
:106890000DC023F00D0376012D01BF00017C447C67
:1068A000BCF1000F17D043F0080343EA0C033B434D
:1068B0001362936A23F03303234333432B4343EAA6
:1068C00041039362837C1BB11C4B1D4AC3F880209B
:1068D000F0BC704770473B431362936A174F23F035
:1068E000330343F0010333432B439362154ABB6DDB
:1068F00032EA0303FBD141F2280302250F4AFD507F
:10690000936D5B00FCD441F218054FF0004613690B
:10691000877823F4700343EA07531361565119B97A
:1069200042F228030221D150002CCBD142F228039D
:106930000121024AD150C5E70080004000C000405C
:10694000F1A7FFFF030001402DE9F04344781C4B01
:106950004FF4D15941F2040E4FF002084F2C42F28D
:1069600004074FF0010C28BF4F241A468578C178E0
:106970000678C3F8249043F80E8043F807C01369E3
:10698000DB03FCD4C379090141EA052185791B01A8
:1069900044EA062443EA45134679457A31432B43BA
:1069A0000679057A807A41EA460143EA4503546153
:1069B0009160536010B16FF4D1535362BDE8F0831E
:1069C0000000024072B6704762B67047EFF3108065
:1069D00072B6704700B962B6704700BFEFF310801F
:1069E00072B67047FFF7F6BFEFF31083DA0732D4C1
:1069F000214A430952F82330C1B210B401F01F04F8
:106A0000E340DB0723D5002827DB104490F8000380
:106A10000209EFF3118313B1B2EB131F17D2174919
:106A20004868C0F3080098B11038C0B243B2002BD8
:106A30001ADB03F1604303F5614393F80003000997
:106A4000824234BF002001205DF8044B70470120D2
:106A50005DF8044B704701207047094B01F00F01AE
:106A60000B44187E0209D4E700F00F03043B0B44EB
:106A7000187E0009E4E700BF00E100E000ED00E05F
:106A8000FCEC00E0024B9B6803EB80000164704764
:106A900000ED00E0F0B4049F9DF8145053B10024C1
:106AA00065B1A14213D950F8246042F82460013442
:106AB000A342F5D1F0BC074B9A607047A14252F84F
:106AC000246002D9002EF2D1EDE7002EEFD142F87A
:106AD0002470ECE700ED00E0704700BF704700BF96
:106AE000084A10B51369044643F004031361FFF725
:106AF000F3FF30BFFFF7F2FF04B110BDBDE8104057
:106B0000FDF7D6BF00ED00E0084A10B51369044652
:106B100043F004031361FFF7DFFF30BFFFF7DEFF31
:106B200004B110BDBDE81040FDF7C2BF00ED00E0AC
:106B3000704700BF704700BF704700BFF0B4072A1E
:106B40009DF810C09DF814700CD8032695003140B4
:106B5000154CAE40A84001FA05F5144926600860BE
:106B6000A6608D6012481349134C002B0CBF0346DE
:106B70000B460121A0F6FC70BCF1000F18BF0446C3
:106B80000E4D00F58050103001FA02F2002F0CBFBC
:106B90000146294642F22040094D1A6022602A50DF
:106BA0000A60F0BC704700BF00E4034000D403401B
:106BB00010E4034010D4034014E4034024D4034001
:106BC00000C00340F0B4A2BB440025182D010729E2
:106BD0004FF00F0C05F180451BD805F570356E6838
:106BE0008F000CFA07FC26EA0C0602FA07F73E4370
:106BF0006E6062B9012202FA01F15BBB42F210033E
:106C00000444240104F1804404F57034E150F0BCE4
:106C1000704701F1804605F57035083EEF68B60013
:106C20000CFA06FC27EA0C0702FA06F63E43EE6071
:106C3000DFE701268E4053B942F2100744002518C1
:106C40002D0105F1804505F57035EE51BDE741F2A6
:106C50001007F3E741F21003D2E700BF10B4064B70
:106C6000064C0122002914BF1946214602FA00F001
:106C700008605DF8044B7047402004404010044019
:106C80002DE9F0434FF0010800254FF400144FF0B8
:106C9000FF0E4FF0004C42F250064FF0FF370378E2
:106CA00090F801908178C27818060C4B41EA0941AE
:106CB000C3F804801201986099610949D2B2C3F8FF
:106CC00028E09D631D64C3F854C09F51C1F8804102
:106CD00081F815230C60BDE8F08300BF000004407C
:106CE00000E100E0F8B50C464FF0010E42F250070B
:106CF000CB7A897A267B1B05256843EA01431E4926
:106D000043EA46531D4E94F80DC041F8205000EB65
:106D10004001C0B206EB011122F003020EFA00F5A9
:106D2000C1F860C0CB650A67F551FFF757FE736D78
:106D3000227A2B43736512B1336C2B433364637A2D
:106D40001BB10E4A936B2B43936342F2180141F23D
:106D500018062379A27942EA0342084B5A50677910
:106D6000E279074942EA07429A510D609D64BDE805
:106D7000F840FFF737BE00BF004004400000044069
:106D80003420044010B50124C0B28440FFF726FE31
:106D9000044B5A6D22EA04025A659C62BDE8104019
:106DA000FFF720BE00000440F8B501250446C3B239
:106DB0009D40FFF713FE0A4B04EB44041F6D5E6B0E
:106DC00003EB04135C6EFFF70DFE354206D1C4F3EE
:106DD0000A1008B93D4200D10130F8BD0020F8BDCD
:106DE0000000044041F6713042F20C020121024BD6
:106DF000D8639950704700BF0000034010B442F2BE
:106E00000C0141F6713401200022034BDC63585021
:106E10005DF8044BDA6370470000034041F27003F1
:106E20004FF4003203F140231A6070474FF04023C3
:106E3000D3F89400704700BFCB784A7830B45B0138
:106E40000C7843EA82030D7900EB40022343920061
:106E500043EA051302F19042012C136303D18A78AF
:106E6000024B43F8202030BC704700BFD080034065
:106E70004FF090435A689AB9002834D05B688BB9B8
:106E80000121194A4FF09043116001E09A6A12B152
:106E90005A68002AFAD14FF090430122DA60704715
:106EA0005B683BB14FF0904301E09A6A12B15A68B7
:106EB000002AFAD10028E3D14FF0904301E09A6A0A
:106EC00012B15A68002AFAD14FF0904202211346BB
:106ED000D16001E09A6A12B15A68002AFAD10122FF
:106EE000024B1A60704770470410004804200048A5
:106EF0004FF090435A68F0B42ABB01218378C278DE
:106F0000002B037814BF02250025002A14BF042695
:106F10000026002B4FF0904214BF0C460224437908
:106F20000779DB00407843EA071303432B43084803
:106F3000084D3343296093600160D460F0BC704712
:106F40009A6A002AD9D05A68002AF9D1D5E700BF39
:106F5000041000480420004843680BB905E05B6852
:106F60005A68012AFBD1596070474160704700BFE1
:106F700083680BB905E05B685A68012AFBD1596048
:106F800070478160704700BFC369032B04D800EBD2
:106F900083020133D160C361704700BFC169042916
:106FA0001BD84FF0984230B4136CDB02FCD50B1D9C
:106FB0009B001365D0E90045146084681560146077
:106FC00049B14FF098410C30103B034450F8042B6A
:106FD00098420A60FAD130BC70477047054B5B6934
:106FE000C3F3851103F03F021B0B817042700370E5
:106FF000704700BF00C0074070B5054616461C46E6
:10700000E9B1202C21D022D9402C16D0602C13D1EC
:10701000042206FB02F35A0802EB4112B2FBF3F220
:10702000AB680D4923F06003AB60AB68203A01EA1E
:10703000C2021C43AC60EA6170BD0622E9E703208E
:10704000FEF75CFF202C0146DDD10822E1E7002C91
:10705000F2D11022DDE700BFF8FF7F000122CB4311
:1070600010B441F20404934003F00A030251436157
:10707000416111B942F20403C2505DF8044B7047FC
:1070800070B440F6AA6241F204040126002341F2E2
:10709000050542F24801065142610E4A0E4C9042EB
:1070A0008360C365C5600361C361C3644450836585
:1070B00007D002F58042904203D002F58042904210
:1070C00002D103650023436542F2040370BC012230
:1070D000C250704700800540FFFF010038B50C46E4
:1070E0000546FFF7CDFF41F204020121A37C815048
:1070F0001BB1836843F080438360E37C8BB1414BD9
:10710000227D9D426ED0404B9D4276D03F4B9D42AA
:1071100004BFA3F52033C3F8A421EB6D43F0800333
:10712000EB65218A637BE2890B431343EB60D4E96F
:107130000112237B2846FFF75FFF637D1BB1AB681D
:1071400043F48033AB60A37DE27D217E1B071205F3
:1071500002F4E00203F0E04313438A1E012AAB6508
:10716000284B1ED99D423BD003F580439D4240D021
:1071700003F580439D420CBF02234FF0FF3342F2E0
:10718000AC5202205B0103F1804303F57033012907
:1071900098501ED141F25C030422EA5023786B61BF
:1071A00038BD9D4227D003F580439D421FD003F593
:1071B00080439D420CBF02234FF0FF3341F2AC529B
:1071C00002205B0103F1804303F5703303299850DB
:1071D000E0D042F25C030422EA5023786B6138BDB0
:1071E0000023CCE7A3F50033C3F8842195E70123FE
:1071F000E4E70123C3E70023E0E7A3F51033C3F876
:1072000094218AE70080054000C005400000064048
:1072100083695B06FCD5C163704700BF30B50A4B7C
:1072200085B01C686CB150B103460D46204601A9DB
:1072300001938DF80850039200F00EF8012005B07C
:1072400030BD204605B030BDF01A0020014B9868D3
:10725000704700BFE41A002070B50E460546FFF7E0
:10726000B5FB04463046A8472046BDE87040FFF70E
:10727000B1BB00BF70B5FFF7B1FB114D06462C78CE
:10728000CCB91049104A114B0C6014601C8000F0FE
:10729000B5FA012000F026FB00F072FB0C49024613
:1072A000086023460B4840F2E73124F0CFFA012270
:1072B000094B2A7018603046FFF794FB002070BD20
:1072C000F41A0020081B0020F81A0020001B0020E0
:1072D000041B002018FCFFFFFC1A0020002842D0ED
:1072E000F8B50446FFF77AFB064600F0C5FA0546F6
:1072F00027480168002938D0264F4A693B68EB1AB5
:10730000934213D90023AD1A3D604B618C4218BFE4
:107310000A4603D136E09C420CD01A469368002BF3
:10732000F9D13046FFF75EFB0220F8BDD31A4B615E
:107330003D60EBE7A3689360A3687BB10A46586998
:107340006769384458618C4216D1BAB1536902203A
:107350001D4400F0C7FA284600F096FA3046FFF7C1
:1073600041FB0020F8BD222070470A4B30461D60CB
:10737000FFF738FB0220D8E7002AEFD1022000F007
:10738000BDFAEBE7A2680260002ADCD01346D6E71C
:10739000081B0020F81A00202DE9F0479DF820A0D6
:1073A000BDF8249000284BD0054616469846002785
:1073B0000C46FFF793FF85F804A0C5F80080EE6047
:1073C000A5F80690AF602F613CB96C61AEB328465A
:1073D0004146B0472046BDE8F087FFF7FFFADFF8E7
:1073E000B080064600F048FAD8F800C0DFF8A4E004
:1073F000BCF1000F27D0DEF80030DCF81420C31AEF
:10740000934230D8D31ACCF81430CEF800006C6117
:107410006346002000E00B465A69A24200D942BBF5
:107420009968A41A6C6118460029F4D19D60A9607E
:10743000654529D03046FFF7D5FA0020BDE8F08732
:107440002220BDE8F08703466C61C8F80050C5F8FB
:1074500008C0CEF800001C44022000F043FA204689
:1074600000F012FAE6E7801ACEF80000CCF81470AB
:10747000CDE720B18560AB60141B5C61D8E7C8F82C
:107480000050AB60AC46F7E76C69DEF80030E2E72D
:10749000081B0020F81A002038B5FFF79FFA0546B0
:1074A00000F0EAF904462846FFF79CFA204638BD6A
:1074B00070B5FFF793FA064600F0DEF9094B054672
:1074C0001C880120A4B200F031FA18B100F0D4F900
:1074D000054601343046FFF785FA0022214642EA8C
:1074E000050070BD001B0020014B1868704700BFED
:1074F000041B0020044B054A1B6803FB00F0A2FBA1
:107500000030800901307047041B0020D34D621009
:107510000A4B1B6883420ED310B50C4608494FF442
:107520007A7209680023A0FB010124F08FF9013071
:107530002060002010BD2120704700BFFC1A0020F1
:10754000041B0020014B1868704700BFFC1A002084
:107550004FF47A72104B2DE90048A0FB02BC1A6868
:1075600012B1531E134206D058466146002324F040
:107570006DF9BDE80088B2FA82F2C2F11F02C2F1D1
:1075800020032BFA02F00CFA03F3203A18432CFAEA
:1075900002F21043BDE80088041B00200000000038
:1075A0002DE9F84923A5D5E900458D4208BF84425D
:1075B00039D34B014401241A43EAD06565EB010538
:1075C000A600AB00801943EA94735941CE00C30072
:1075D00046EA50761846164B1B685BB9144631468E
:1075E0001A46002324F032F90025C4E90001284698
:1075F000BDE8F8895D1E1D40F0D1B3FA83F3C3F1F5
:107600001F03C3F12007D84006FA07F7A3F12001B2
:10761000384326FA01F1084326FA03F3C2E90003CE
:107620002846BDE8F88921252846BDE8F88900BF2D
:10763000041B0020EFA7C64B37894100C2072DE984
:10764000F84F044600F19980A30701D4BDE8F88FF4
:1076500000F012F9DFF8A0810646D8F80050644F18
:10766000451BFFF7BBF93C688246002C00F0AB805D
:1076700062699542C0F0B8804FF00009C8F8006018
:107680002346294600E05A698A4209D8187994F8B5
:1076900004C0891A844588BF1C469B68002BF2D120
:1076A0005046FFF79FF9D4F814A0C4F81490FFF7E0
:1076B00095F93A6842B1A24203D17AE0A3422DD0B3
:1076C0001A469368002BF9D1FFF78CF92369002B38
:1076D00032D1E36813B121682046984700F0CCF816
:1076E0005644AD1B83460544FFF778F93C68824653
:1076F000002C68D062695E46AA42BFD9551B6561FD
:1077000002205D44C8F800B000F0ECF8284600F014
:10771000BBF85046BDE8F84FFFF764B9A368936023
:10772000A1680029D0D04B69626913444B61FFF70F
:1077300059F92369002BCCD0FFF750F922693B6837
:1077400086466261002B37D04FF0000C00E0034604
:107750005969914201D900293DD19868521A626154
:107760009C460028F3D19C60A06010B143699A1A2E
:1077700042617046FFF736F9ABE71E4A13880133C2
:107780009BB2138000F078F8194B1A684AB31A4973
:1077900055690B68C31AAB4211D90023401B08601E
:1077A0005361C518022000F09DF8284600F06CF8DF
:1077B0004AE7A1683960B4E73C60A360D9E7EB1AF7
:1077C00053610860EDE7022000F098F85046BDE8EC
:1077D000F84FFFF707B91846BCF1000F06D13C601F
:1077E000C2E7054B18602FE7B34687E76346BAE761
:1077F000081B0020001B0020F81A002010B50024F0
:107800001A4B84B003F1080293E803000290ADF82C
:107810000C1092E80300009002A88DF804108DF877
:1078200008408DF80C40FFF763FB04A901F8104DE8
:107830000120FFF701FB4FF090431F241A4699697E
:107840000B4821F01F0199610460936A13F008034B
:10785000FBD113620120FFF70BFB4FF48062054B55
:10786000C3F880211A6004B010BD00BF34C102000B
:107870001420004800E100E04FF09042936A1B079B
:10788000FCD4106A704700BF4FF09042936A19070A
:10789000FCD4136A116C5269120702D4CA1A022A64
:1078A0001AD9C21A012A98BF981CB0F1FF3F28BF0D
:1078B00001304FF0904318649A6942F008029A61CF
:1078C000074B1A783AB14FF090410020CA6B42F052
:1078D0000202CA63187070479942F1D1E1E700BF14
:1078E000A810002082074FF0904200F00103916938
:1078F00048BF43F008030B4393617047830700F0D0
:1079000001020AD54FF090410120074B42F00802D6
:107910001870CB6B23F00303CB634FF090418B695E
:1079200023EA02038B617047A81000204FF09043B8
:1079300001285B6906D0022802D1C3F3C00070475A
:107940000020704703F00100704700BF10B5FFF73B
:1079500045F84FF0904304465B691A07074A03F065
:10796000010003F00D0348BF40F002001360FFF771
:1079700065FE2046BDE81040FFF734B814200048EB
:107980001B20FEF7BBBA00BF064B70B506460D467E
:10799000144618464C22002124F065F9C0E9096517
:1079A000C46270BDF44A002008B5FFF74FFC80F4B4
:1079B0008050C0F3003008BD104B10B51A79044652
:1079C000D2070ED55B798B420BD3012100F000FA70
:1079D00033216CB90022BDE8104009481146FFF779
:1079E0001DBC0021204600F0F3F9002CF2D031211B
:1079F000BDE81040034A0248FFF710BCF44A0020DB
:107A0000284B0020B17D000070B51D4600231446B0
:107A100002F04002134382B004D0144B93F8382094
:107A2000D2071DD54BF20900002100EA040201EA49
:107A30000503134303D12046294602B070BD0B4E07
:107A400001A9706A19F032FC9DF80430042BF2D0C1
:107A5000B1780020FFF7B0FF2046294602B070BD84
:107A600099780120FFF7A8FFDCE700BFF44A002067
:107A700070B50646FFF7EAFB10F480540CBF0120F6
:107A80000020084D00F0BCF9211C18BF0121686AD4
:107A900019F03AFD26B11CB1AB6ABDE87040184739
:107AA00070BD00BFF44A002018B1034BD87800F035
:107AB0000100FFF7DDBF00BFF44A0020084B9B79AF
:107AC0008B4202D20020FFF777BF10B50446FFF7C4
:107AD00073FF24B1BDE810400020FFF7C9BF10BDFF
:107AE000F44A00202DE9F04383B01E4607460D46B8
:107AF0009046FFF7ABFB430502D403B0BDE8F0832B
:107B0000FEF76CFF204C8146E37813F0240F28D158
:107B1000002294F803C0218868F3041C0092791AAB
:107B20001A4B1B4884F803C019F0FCF878B9E378C5
:107B3000FF2143F0040365F34103A670E370FFF7F0
:107B40003BFF484603B0BDE8F043FEF74BBF284675
:107B50003146FFF7B3FF484603B0BDE8F043FEF7F8
:107B600041BF03F0FB036FF3451304F10C00E37016
:107B700019F0E4F8E1780022890901F0020104F12A
:107B80004000FFF74BFBC3E7F44A0020697C00008C
:107B9000004B002070B52F4C82B0E3780A461D07D9
:107BA00045D5DB0643D5002841D0E379002B3ED0F4
:107BB000257A632D3BD8002D3FD04FF47A7505FB15
:107BC00003F519F012FDB0FBF5F2642302FB15007A
:107BD000227A03FB00F305FB02F2934233D21E4DDF
:107BE000E378A5FB021243F04003C0EB5215E370AB
:107BF00000210846FFF7E0FE0022E678174846F02D
:107C0000200616F0400F0CBF11468021B30903F087
:107C100002031943E670FFF701FB00232946009396
:107C200001220F4B0F4819F07DF802B070BD1146CC
:107C300002B0BDE87040FFF741BF284602B0BDE882
:107C40007040FFF7B9BEE3782D1A6FF38613E37027
:107C5000CEE700BFF44A00201F85EB51344B0020D3
:107C6000897C0000004B0020064AD378590700D4D5
:107C700070476FF38203C3F340009178D370FFF72E
:107C800089BF00BFF44A0020044BD878820600D494
:107C900070479978C0F34000FFF77CBFF44A00209A
:107CA0002DE9F041144607460E46FFF7CFFA42058C
:107CB00019D567B3CEB93C4D95F83830DB0738D5C8
:107CC0006B79A3420FD3FEF789FEEB78804613F061
:107CD000240235D162F3041321460120EB70AC700D
:107CE000FFF758FF35E0BDE8F081FEF777FE2E4B39
:107CF0008046DA78214642F0100201209C70DA704A
:107D0000FFF748FF4046BDE8F041FEF76BBEFEF7C7
:107D100065FE254D8046EB7813F0240026D07EB317
:107D200043F0100338462146EB70AC70FFF732FF8A
:107D3000E8E7FEF753FEEB78804613F02402C9D043
:107D4000EB7821466FF304130120AC70EB70FFF762
:107D500021FFE9780022890901F002011348FFF7A9
:107D60005DFA4046BDE8F041FEF73CBE66F3041301
:107D70002146EB70AC70FFF70DFF002EC2D1E8E793
:107D800066F3820366F3451305F10C00EB7018F0FF
:107D9000D5FFEB78214666F304133046AC70EB70E8
:107DA000FFF7F8FED5E700BFF44A0020344B00206F
:107DB000C20610B5044606D4A30600D410BD0020A8
:107DC00000F01EF810BD012000F01AF8F4E700BF23
:107DD00038B50546094C08B9A57638BD2176FFF7B8
:107DE000E3FDA37E6076002BF6D1227EA57654F8C3
:107DF0002230013344F8223038BD00BF0C1B002074
:107E000010B50D4CA37E13B110B10123637610BDE4
:107E100003464FF0FF30A37618F054FF0528F6D143
:107E2000237E002B14BF0522042254F82230013394
:107E300044F8223010BD00BF0C1B0020C20606D53E
:107E40001038C0B203281BD80E4B185C7047C1070E
:107E50000BD402070BD410F0020F0CBF0323022334
:107E6000810606D543F0A00070470123F8E70423FC
:107E7000F6E7420654BF43F0800043F0C00070476D
:107E80000420704741C1020040F201132DE9F04780
:107E9000984288B040F0988040F2031000F0BEFC99
:107EA000064690B3022013F0B5F800280CBF0B2251
:107EB0001222311D171D3944C2F1FF0203A813F02D
:107EC0000CFC9DF80E300546FF2B404C21D130466E
:107ED00009F086FF9DF8193021462371DDF80F3037
:107EE0000D20C4F80530BDF81330A4F809309DF812
:107EF0001530E3729DF816302373354B2360012350
:107F0000009300231A4600F08DFC012008B0BDE864
:107F1000F087022013F07EF8EDB29DF815A09DF8D1
:107F200016909DF80E309DF80C80A0B31846FFF710
:107F300085FFDDF80F3005F11202C4F80530BDF8F9
:107F400013306575A4F809309DF81730214D63731F
:107F50009DF818302071A3739DF8193084F80BA098
:107F6000E3739DF81A3084F80C9023749DF80D305B
:107F700084F81180A374BDF81B3045EA1225A4F8DB
:107F8000133013029BB21D43324610493846256018
:107F900000F08CFCB9E7184684F80480FFF74EFF28
:107FA000DDF80F30A573C4F80630BDF813300B357B
:107FB000094A63812B02607184F80CA084F80D904B
:107FC0009BB242EA1525DEE700209FE7404B0020E8
:107FD000A0090302A0000304A000030030B51C4662
:107FE00040F206239A4287B000F0938041D8102ACD
:107FF00000F01C8127D8042A76D0072A00F0D3800D
:10800000032A6ED1002403A8CDE90344059413F09C
:108010007FFF4AF2EE428C49049B4A824DF655029C
:10802000CB6001238A82894D894A0B82C1E90052C3
:1080300002F1B47206328A6016200093224623466B
:1080400000F0F0FB4DE0B2F5817F00F0A18040F23E
:1080500003139A427FD0112A43D123887A497D4A5B
:108060008B800A60002301228B7100921A46072040
:10807000E6E740F202639A4200F0A28020D840F284
:108080000B239A423AD040F201639A4200F0BF803B
:1080900040F207239A4224D1207809F06BFF00B305
:1080A000694D237860782B7113F02EF86A4B687154
:1080B0002B6001230093002329461A460620BFE7C0
:1080C00040F204639A4200F08C80C0F0858040F258
:1080D00005639A4200F0938040F207639A4200F0F1
:1080E0009E80002007B030BD238857498B805B4BB2
:1080F0000B600123009300231A46DFE7638852498F
:108100008B8023788B71564B0B60012300930023E7
:10811000ACE723684C4953F83C0F9B8848600B81BF
:10812000236893F855208A7293F85720501E4242D4
:108130004241CA7293F852200F200A7393F85920D3
:1081400093F85A304A738B73464B0B6001230093AC
:1081500000231A4674E7207809F00CFF0028C0D0ED
:10816000237839490E200B716388A1F80530A38864
:10817000A1F80730E388A1F80930237ACB7263892C
:108180008B81394B0B600123009300231A4657E77C
:1081900023782D490B71354B0B600123009300238D
:1081A00005201A464CE7207809F0E4FE264990F8AD
:1081B00052300B7163784B71A3788B712C4BA3E712
:1081C000207809F0D7FE00288BD023781E490B7148
:1081D00063784B71274B8BE723781B490B71264B38
:1081E000DAE7237818490B716368C1F80530234B2F
:1081F0000B600123009300231A46092020E723780F
:1082000011490B716368C1F805301D4BF0E7237805
:108210000D490B716388A1F805301A4B74E7237878
:1082200009490B7163684B71174B61E72378064965
:10823000164A0B710A60002301224B718B71CB71BE
:108240000B720092D8E700BF404B0020A012010043
:1082500002000D00A0030106A0020804A00201050F
:10826000A0030801A00B0800A00A0802A001030156
:10827000A0030803A0020F03A0010F01A0050F0037
:10828000A0050F02A0030F04A0020F09A00503051B
:10829000014813F0D7B900BF897E000010B504462D
:1082A0004FF49870A047044B18604FF49870A047A3
:1082B000024B186010BD00BF281B00202C1B0020A3
:1082C00038B50B4D0B492B6809681A1891420446C2
:1082D0000CD902460021184623F0C5FC03460330A2
:1082E000204420F003002860184638BD0023FBE737
:1082F000381B00203C1B002007B51B6807490820DD
:108300004B60074B0B600123009300231A4600F0DB
:1083100089FA002003B05DF804FB00BF404B002049
:10832000A004010307B502210DF10602322000F07E
:1083300065FC18B9BDF8060013F052FE03B05DF8F5
:1083400004FB000030B585B00446FFF7FBF8A042FF
:1083500002D2FFF7F7F8044603A92046FFF7D8F842
:1083600088B9CDE900000346084A03990848FFF799
:1083700013F840B924B113F0D7FEFFF7E9F804462B
:10838000204605B030BD0024FAE700BF9187000009
:10839000441B002038B5054600F07EFC074C2060E9
:1083A000206812F005FE286000F000FA20B908F0FD
:1083B00037FE0028F4D138BD0120FCE7301B002037
:1083C000F0B5124D124E85B003A8FFF7E3FF044647
:1083D00038B100F003FA044600F0F0F9204605B089
:1083E000F0BDFEF7FBFA039907464B1C06D0CDE91A
:1083F000004423462A463046FEF7CEFF039B0BB1CE
:1084000013F092FE3846FEF7EDFADDE791870000A3
:10841000441B002007B501A8FFF7BCFF03B05DF8BF
:1084200004FB08B5FFF7F6FF18B1BDE80840FFF7F9
:10843000C7BF08BD08B508F039FE08B1012008BD66
:1084400000F02AFC08F086FE0028F7D100F0AEF913
:10845000003018BF0120F2E708B5FFF7EBFF28B99D
:1084600000F01AFCBDE8084008F082BE002008BDFC
:1084700010B5FFF7F1FFFFF76BF80446FFF762F85E
:10848000A04203D2BDE81040FFF75CB8204610BD03
:1084900008B5064B1978814204D0187012F0ACFD73
:1084A000002008BD40F28110FBE700BF341B002014
:1084B000024B1B6803B11847704700BF5C1B0020CC
:1084C00008B5054B01461B7858B208F089FDBDE898
:1084D0000840FFF7EDBF00BF704B00202DE9F047CB
:1084E000044686B0002800F0338113F0B3FD002865
:1084F00000F031812368DA0542BF0122974B1A70E0
:1085000013F0B6FD257A0020002D08BF042500F0E9
:10851000C1FB677AE368002F08BF01273BB1904A8F
:10852000A16C1360228A0A4413448E4A13608E4859
:10853000FFF7B4FE5FFA87F88B49152008F0E8FFD3
:10854000E27A4146E8B212F01EFD884B1968884B6A
:10855000186822F0A3FC00F023FB0646002840F038
:10856000B28009F089FF09F0D7FD39460246284656
:1085700000F03EFC94F83E50002D7DD0102D28BF19
:10858000102508F07FFF002381B26A1C0C2008F040
:1085900087FF404601F0DEFB40460BF0EBFDA07A82
:1085A00007F044FCA07A0BF0F5FD724A72491420E2
:1085B00008F040FE6FF00303A26C51219B1A694A38
:1085C000012012681A44664B1B68D21A5823B2FB6A
:1085D000F3F2002392B208F063FF08F0CFFC5F4B88
:1085E0001A78984632B9206880F40070C0F34020B1
:1085F00000F010FA09F0E2FB94F8301021B1626B40
:10860000362000F0EDFA064604F12C020421352054
:1086100000F0E6FA94F83830002818BF06466BB32D
:1086200004F1390201213E2000F0DAFA002818BFD7
:108630000646FFF777FE94F804A0E0690AF0040A02
:1086400008B112F0B2FD0DF108094A4606212C20AE
:1086500000F0D4FA0546D8B9484612F08BFD88B12F
:1086600030280FD00DF1070201213C2000F0C6FA9E
:10867000074680B1012717E0042582E73E2000F07D
:10868000CBFAD6E73C2000F0C7FA2C2000F0C4FA61
:1086900000252F4608E09DF80750012D17D199E8D5
:1086A00003000490ADF81410206A00F0E7F994F884
:1086B0004430DB070DD594F8450013F0BCFC40B105
:1086C00000F5306086B2304606B0BDE8F08705465A
:1086D000D0E7002F04F1280314BF4A4600220121ED
:1086E000204600F025F913F017FD244B626A1A604A
:1086F00098F8003013B9012000F0CCFA00F0CCFA61
:108700001F4B01211860062012F090FC012009F097
:10871000E5FF1DB104A901200AF0D4FA002119488F
:1087200008F04CFC184B1870BAF1000F0ED1022063
:10873000FCF73AFE00220321144808F007FE98F8DF
:108740000030002BBFD1FFF7B3FEBCE70320EFE7FB
:108750004FF4C076B7E740F28D16B4E7401B002017
:10876000381B00203C1B0020C18200008810002024
:1087700084100020DF8C0000998C00005C1B00201E
:10878000301B0020F9820000704B0020D021002017
:10879000FFF78EBE044B1B680BB9184670471A785A
:1087A0008242FAD09B68F7E7681B0020024B1868EA
:1087B000003018BF01207047601B002010B5054C29
:1087C000206808B109F00CFB034B1A68226012689C
:1087D0001A6010BD641B0020601B0020024B18684B
:1087E00000B10430704700BF601B002070B5064622
:1087F0000D46FFF7CFFF48B90C2009F0EFFA38B16A
:10880000054B06701A68456082601860002070BDD4
:108810004FF4C170FBE700BF681B0020043009F073
:10882000CEBA00002DE9F0471E4691F9003080468F
:10883000002B8A4615469DF8207023DA101880B266
:10884000FFF7ECFFB0B1174BD3F80090B9F1000F70
:1088500014D1041D186042465146204623F0DFF92A
:1088600045B104EB0800022F16D100232A463146F9
:1088700008F0C8FFBDE8F047FFF71ABE4B46D9F82D
:108880000090E3E7084B02461B68184623F0C7F93F
:10889000002DEFD04044E6E72A46314623F0BFF9E9
:1088A000E8E700BF601B00202C1B0020074B10B422
:1088B00014461A6832B91C600246201D5DF8044B4C
:1088C00023F0ADB913461268F4E700BF601B002027
:1088D00037B5C0F30744019020461546FFF75AFF0D
:1088E00030B1C9B99DF8072043680BB1196871B957
:1088F0009DF80720240444EA026440F28312084BE6
:1089000044F408741B681C609A8003B030BD587929
:10891000904201D00833E8E728468847F5E700BFD2
:108920002C1B00200A460021FFF7D2BF704770477A
:108930002DE9F043064687B00D461F46334C002A0A
:108940003FD1334BD3F848C0DB6C42EA0C08C8F384
:108950000742A270C3F30722C8F30721E270C3F3F2
:108960000742C3F3076384F800806170227163716A
:10897000122200210DF1060023F075F9738AADF87B
:10898000043073690293B3690393B6F84030ADF8CD
:108990001030B6F84230ADF8123013F049FB8DF8C4
:1089A00014009FB9029B43F01003029301A800F04A
:1089B0006BFA0446A0B100F53064A0B207B0BDE880
:1089C000F083136823609388A380D1E73B78002B62
:1089D000E8D07B78BA78012B8DF81420E2D0E5E757
:1089E000502306AA22F8163D0221312000F006F994
:1089F000BDF9020012F02AFB284600F051F812F0EF
:108A0000F5FDFFF745FC2046D8E700BFC44C002029
:108A10000080E00F08B518B104490548FCF744FC94
:108A200013F008FBBDE8084013F088BA2F89000056
:108A30002D8900004FF08052014B5A60704700BFF3
:108A400000ED00E00023044A52E8000F42E8003144
:108A50000029F9D100F04EB9CC4C0020054A52E86B
:108A6000003F034342E800310029F8D1024B1B6864
:108A7000184700BFCC4C0020D04C0020054B08B15B
:108A800018607047044A05496FF001001A6013F03E
:108A9000E9BA00BFD04C0020358A0000458A0000AA
:108AA00010B5002104460A4808F088FA094B1870EE
:108AB00024B1BDE81040012108F092BA22460649CF
:108AC000064808F04BFCBDE810400120FCF76CBCE8
:108AD000FD8A0000D44C0020DD7F0000D021002062
:108AE00008B512F03FFABDE80840002201490248EB
:108AF00008F034BCDD7F0000D021002073B51C6875
:108B0000E10701D5FFF7ECFFA20725D50DF07EFDAB
:108B1000E0B902AC124D44F8040DFDF75FFF0646C4
:108B2000284608F0C8FE01903046FDF75BFF01982B
:108B300090B143795B070CD42046022109F081F8FB
:108B400001980DF05DFD0DF0CDFDE6E70DF0CAFDDD
:108B5000DCE70EF003FCF6E7002002B070BD00BFBA
:108B60006C1B002038B5044648B1FDF737FF0546B9
:108B70002146084808F0BCFF2846FDF733FF064BA6
:108B8000022193F9000008F02BFABDE83840FFF706
:108B90008FBC00BF6C1B0020D44C0020FFF7E2BF4D
:108BA0000D4B98420BD8013B98420ED230B1033B9B
:108BB00098420DD0C0F30C0000F510607047074BD1
:108BC0009842F7D140F2025070474FF4C07070479E
:108BD00040F20150704700BF0AE000F00BE000F0E7
:108BE00008B50B4640F480210348006822F02CFAB7
:108BF000BDE80840FFF7D4BF8410002008B50B463D
:108C000040F480210348006822F068FABDE808407B
:108C1000FFF7C6BF8410002008B5054B40F4802143
:108C2000186822F0F5FABDE80840FFF7B9BF00BFA9
:108C3000841000202DE9F04305460F4690468DB084
:108C400002AECDF800803B460A223146284622F08B
:108C5000CFFA002481464C4505D1002CF1D12046A5
:108C60000DB0BDE8F08356F82410284622F0D0FA63
:108C70000134F0E7CA4308B5054B10FA82F240F41C
:108C8000802142F480221868FFF7D4FF002008BD3D
:108C900084100020FEF7EEBAFEF7FEBBF7B50546DE
:108CA000FEF706FC6A46FEF77BFC0446A0B9DDE948
:108CB00000674FF47A7200233046394622F0C6FD31
:108CC0004FF47A72286000233046394622F0BEFD08
:108CD00090B2FEF70FFCA880204603B0F0BDFEF76F
:108CE00017BC0000024BD86808B1FFF7B7BE704749
:108CF000701B00202DE9F8433C4B00221D4603F178
:108D00000C0151E8001F03F10C0444E80026002E7A
:108D1000F5D140EA0104200101D505F095FC002CB5
:108D200001DA03F05DFE610001D506F0A7FCA200A8
:108D300001D502F0F3FBE3000ED500F099FA58B923
:108D400005F10C0353E8003F43F0805305F10C019B
:108D500041E80032002AF3D167010ED502F0F3F9A1
:108D600058B905F10C0353E8003F43F0806305F167
:108D70000C0141E80032002AF3D1A00105D500F032
:108D8000F9FF02F059FA07F093F9E10101D507F074
:108D900051F8620201D507F0FFF9230201D500F076
:108DA000E6FFA7B2FFB14FF0010997FAA7F0B0FABA
:108DB00080F009FA00F827EA080701F0C7F920B1A6
:108DC00002F05EFC08B946EA0806002FEDD156B164
:108DD00005F10C0353E8003F234305F10C0141E882
:108DE0000032002AF4D1BDE8F88300BF701B0020D8
:108DF00038B50D46144601F03FFD284600F01CFA38
:108E00002046BDE8384013F0DCBC0000044A52E8BC
:108E1000003F034342E800310029F8D1704700BF0A
:108E2000701B0020C043044A52E8003F034042E860
:108E300000310029F8D17047701B0020014B1B68DE
:108E400018407047701B002008B506F005F8BDE813
:108E50000840012005F0F4BF05F0FABA0246034BC2
:108E600000685861928801201A837047701B0020A7
:108E700000487047841B0020024A136918431061A0
:108E8000704700BF701B002038B504464CF20C0040
:108E9000FFF7F2FF00221C4B1A601C4A24B16168E4
:108EA0001160A16801B11960196809B91849196000
:108EB000184B1948936008F073FF204605F0E8FC52
:108EC0000546F0B92CB1B4F90E10B4F90C0006F057
:108ED00033F800F059FF13F071FC02F0B9FE00F016
:108EE00057FE06F0F1F901F0F5FC02F03FFD04F049
:108EF00081FA05F05BF805F08BF907F0D4F807F07C
:108F00004DFC284638BD00BFD84C0020701B002007
:108F1000A9100020E58C0000741B0020014B18698B
:108F2000704700BF701B0020014B9868704700BF5E
:108F3000DC4C0020104BF0B51E684FF0FF32354678
:108F4000002493F804C0A44509DC99B1531C11D046
:108F50006C2303FB026383F845001846F0BD95F8C7
:108F600045702B468742F8D0FF2F08BF22466C354C
:108F70000134E8E70023F0E7DC4C0020203050E823
:108F8000003F0B4340E80032002AF8D14FF08050F8
:108F9000FFF764BDF7B5044605F084F9C0F30F236D
:108FA000542B41D9A92B8CBF02230123C0B27E28A8
:108FB0008CBF0222012203218DF80430134493FB5D
:108FC000F1F000EB40001B1A8DF80530134493FBC1
:108FD000F1F202EB42029B1A8DF8063000231E4686
:108FE00018461946114A01AF82F84130DD5D44FA56
:108FF00005FC1CF0010F06D04E00B54001262843A9
:109000000131C0B2C9B20133032BEFD10EB182F8E6
:10901000410092F8413043EA8111FF2382F8411068
:1090200082F8403003B0F0BD0023BFE7DC4C0020E5
:1090300073B52C4A054692F8403092F8411001333E
:10904000DBB2B3EB911F82F84030144605D3032303
:10905000002082F8403002B070BD00F0A0FE88B160
:1090600095F84430DB063BD494F8403094F8410046
:109070005B00184100F00300253000F093FE80F003
:109080000100C0B200F0010005F0DAFE94F84020C3
:1090900094F8416052001641B5F94C2006F00306E1
:1090A0009042A8BF104600B295F8683000900E4A72
:1090B0000E4906F1250005F097FD002211461046E5
:1090C00005F06CFD94F8403094F841005B001841C5
:1090D00000F003002530002100F060FE0120BAE717
:1090E0000020CFE7DC4C0020D6BE898E55555500B8
:1090F00038B50446002512F0D3FD206CE56110B1AF
:1091000001F04CFC256404F15000BDE8384008F043
:109110008FBB38B5044639B390F828209AB190F83F
:1091200029300133DBB29A4280F829300BD101217A
:10913000FFF7DEFF12F0CCFD4FF480112046BDE8B2
:109140003840FFF71BBF236A1A040DD5E36A626833
:109150009B1A002B08DA01212046FFF7C9FF12F005
:10916000B7FD4FF48001E9E7236A5B0427D405F0DB
:1091700099F81125B0FBF5F505EB051594F95D306F
:10918000451BADB2EA18102A88BFC5F110056DB2B3
:10919000083B2B4484F85D302046012112F080FD0D
:1091A00040F27122A38C20461D44636802FB053502
:1091B000656012F045FDBDE8384012F089BD00251C
:1091C000EAE7000038B5036A044613F0100518D02A
:1091D00003F00303144A002B08BF0025134B1CBFE8
:1091E00001251346E3612046FFF722FF58B12846C8
:1091F000217E05F0BFFB0E4B9868BDE8384005F0B6
:10920000AFBD0A4BEEE70B4B217E1A682046D37A9E
:1092100092780B449342D4BF237622760121BDE895
:109220003840FFF776BF00BF119A0000CD990000CB
:10923000DC4C0020D84C002038B5044600EB40013F
:1092400001EBC101890089B200230122074D0620EC
:1092500008F026F906202C7108F066F96C222860C7
:109260006243BDE83840002122F0FDBCDC4C002008
:109270002DE9F0410025304E88B03379AB4203DC54
:10928000012008B0BDE8F0816C24336804FB05348C
:1092900094F84530FF2B0DD0236A9B0206D504F1CC
:1092A0005008404608F09AFB074628B9226A12F493
:1092B000A00F15D10135E0E7BB7994F845100C33C8
:1092C0003B441A4652F80C0F92880690ADF81C20C9
:1092D0009A7A384606ABC2F3801203F0EBFAE0E765
:1092E00094F844301D2B19D100203C23CDE9010016
:1092F000CDE90303009004F15703C2F300220121DA
:1093000003F0BEF90028BCD0203454E8003F23F419
:10931000A00344E80032002AF7D1CBE712F4801F03
:1093200094F829304FF0000214BF43213C2194F8F7
:10933000450003F09FFAE5E7DC4C0020036A10B516
:1093400013F400740B7808D043F040030B7050F80E
:10935000463F13608388938010BD64F386130B70BF
:10936000024B196811609B88F5E700BFC44C0020D0
:109370002DE9F0412D4B07469C688846A5790C35B0
:10938000635D661903F06F036FF34513635506239E
:10939000737090F84420103A0D2A20D8DFE802F0CC
:1093A000401F3C071F0C1F1F1F1F1F1F1F0C635D4B
:1093B0006FF30303635512E00122635D62F303035D
:1093C00063550C237370034653F8572FB2609B8884
:1093D000B381036A625D1B0A63F3C7126255FFF72C
:1093E0009DFD430444BF635D97F84420314644BF6C
:1093F00062F345136355B21C3846FFF79FFFA3790C
:1094000072780233B8F1000F1344E371A4BF9044A3
:1094100086F80180BDE8F081625D63F30302DDE759
:109420000222635D62F30303C4E700BFDC4C00204B
:109430002DE9F843334B8A79D3F808900C328C1815
:1094400099F8067022790C37D207064609EB070314
:1094500003D44FF0FF30BDE8F88394F80B80B8F1E7
:10946000250FF6D8056A991C15F0100F08BF0231B8
:1094700004F11200062222F0C3FB0028E9D119F8FA
:109480000730A07AC3F38013B3EBD01FE1D115F4FA
:10949000405F0FD14FF44055A77A07F00F00032823
:1094A00014D1ED04D5D5336A9C07D2D5B8F10C0F91
:1094B000D1D0CEE704F10C01C0F3801013F07FF996
:1094C0000028E7D1ED4305F44055E5E70528C0D174
:1094D000A904BED5356A05F01403142B0DD106225C
:1094E00006F1570104F10C0022F08AFB0028B0D1EC
:1094F0002B0A83EA9713DA07ABD4EB07A9D505202B
:10950000A9E700BFDC4C002000232DE9F0478C794F
:10951000D0F840800C3403640C4494F807A0066A29
:10952000054686B00F4650462189D4F8009005F0D4
:109530000DF9204B06F010061B6809EB00025B7961
:109540002B764EB302F2E242A17A04F10C0904F147
:109550001803C1F3801C95F845E03EB30120C1F328
:10956000401194F90540CDE902E1CDE90404CDE9CB
:10957000009C0021404601F0AFFE3EB105F054F8DA
:1095800001212846FFF7B4FD12F0A2FB384606B0D1
:10959000BDE8F04708F068B8AAF1030ABAF1010F74
:1095A0008CBF02F6C41202F6A662CDE795F86900F8
:1095B0000121D6E7D84C00202DE9F341002502AE69
:1095C00046F8045D4FF0FF310446304604F082FF58
:1095D000019949B12046FFF72BFF032806D0052843
:1095E00040D0304608F024F9012034E0236A1B05FE
:1095F00034D5019904F1500008F07AFA4FF40011C3
:109600002046FFF7BBFC1B4D606BAF6808F0EEF91E
:1096100004210646BB7920460C33FA5C07EB0308AD
:1096200002F04F0261F30302FA54414608F10202CC
:10963000FFF784FE002E636BA868A4BF063688F887
:109640000160036005F08CFB217E002005F0CEF860
:10965000094BE361002002B0BDE8F081304608F01C
:10966000E7F8D0E7019804F0B5FF01992046FFF72D
:109670004BFFEFE7DC4C0020DD990000C3693BB1F4
:10968000036A13F001030BD190F84520FE2A07D09E
:109690000B68C0F846308B88A0F84A30012070472C
:1096A00000207047F7B5184B90F82A40009303F15B
:1096B0000133019302AB1C4490F844301746DA069C
:1096C000064614F8084C08D40A463B46214606F0E4
:1096D00002FD00F5FA7003B0F0BD084608F086F907
:1096E00096F844300A309B074FEAC00505D038464B
:1096F00008F07CF900F50C700544E820611E484331
:1097000005FB0400E5E700BF0001010238B504468F
:10971000FDF764F9D4E90C1205462046FFF7C2FFB5
:10972000A28CE38CE0609B1A40F2712202FB0300E2
:1097300000F59C50083020612846BDE83840FDF710
:1097400051B92DE9F84F04460F46E1691D4691468F
:109750009DF828B09DF82C809DF838A09DF8400019
:109760009DF848309DF85060002940F09180EA064D
:1097700000F1818005F00301032908BF05F0FD0514
:1097800005F0F705A906BDF83C1048BF05F0FC053B
:109790008207A4F84C1071D410F0040F0CBF012103
:1097A0000321980784F868106AD413F0040F0CBFE3
:1097B0000121032184F86910206E00F0D0FA236A99
:1097C00023F4954323F07F03002E5BD12907236206
:1097D00006D54FF006094F46236A43F480432362BF
:1097E000236A6A0723F4405323620CD41AF0010F52
:1097F0001CBF43F4805323621AF0020F1EBF236A7A
:1098000043F400532362236A84F844501D43BBF1A0
:10981000000F3AD1256204F045FDB4F866309DF89A
:109820004C2060F30B03A4F86630C3F3072362F304
:10983000071384F867309DF83430A78484F82A3001
:1098400094F84430A4F826905B070ED50C9B1B6857
:10985000C4F857300C9B9B88A4F85B30B8F1000F1C
:1098600003D0236A43F4807323622046FFF74EFF40
:109870000020BDE8F88F0123184683E7022190E716
:10988000022197E743F40063A0E745F40075C1E7C0
:109890000120EEE7036A10B5044613F4E02029D056
:1098A000DA0307D504F1300007F0C2FFA36B23638E
:1098B0000023A363236A9B0307D504F1340007F058
:1098C000B7FFE36B63630023E36304F1200252E814
:1098D000003F23F4E02342E800310029F7D120467D
:1098E000FFF714FF0120B4F866305A1C62F30B0333
:1098F000A4F8663010BD0000F8B50C4607285BD808
:10990000DFE800F0045A3D455A5A55450846FFF72E
:10991000C1FF236A13F0100003D013F0030018BF37
:109920000120054694F82A00FFF734FB2046FFF794
:109930007FFB224A224B206B002D18BF1346E361A8
:1099400008F054F81F4E01462046FFF711FD226B28
:10995000B36867681A6004F0CBFE381AFA28227ED2
:1099600008DC1146284605F005F8B068BDE8F84067
:1099700005F0F6B96168284605F022F8F5E712F01F
:109980006DFA844218D1BDE8F84004F04DBE0E4B8C
:1099900020461A68237ED17AD2785B1A9342ACBFF4
:1099A000237622760021BDE8F840FFF7B2BB0846D7
:1099B000BDE8F840FFF706BCF8BD00BF119A0000F3
:1099C000CD990000DC4C0020D84C0020042802D1A6
:1099D0000846FFF7F7BBFFF78FBF0000042810B55C
:1099E0000C460FD1086B08F001F801462046FFF73E
:1099F000BFFC064B226B9B682046BDE810401A60F6
:109A0000FFF7E0BBBDE81040FFF776BFDC4C00205D
:109A1000042810B50C4605D0052809D0BDE8104033
:109A2000FFF76ABF097E0120BDE8104005F082B94A
:109A30000846FFF7C1FD30B104F0F6FD2046BDE851
:109A40001040FFF7BFBB10BDF8B51F46C369044601
:109A50000D4616467BB1002967D1FCF7BFFF0646CD
:109A600029462046FFF744FB12F032F93046FCF756
:109A7000B9FF2846F8BD0029FBD0036A03F01203A2
:109A8000022B54D0236ADD0758D494F84530FE2BBE
:109A900007D1FFF7EDF90368C4F846308388A4F8CE
:109AA0004A30236AD80653D5364B40F27121E28CF6
:109AB000206A51432161C1064CBF4FF4A5714FF498
:109AC000D771E3610023A160A16884F82930F531E2
:109AD00020F4004384F828702362A16046B140F26C
